:020000040800F2
:100000007804002045010008B90300083D030008FA
:10001000B50300081D020008330F000800000000AF
:10002000000000000000000000000000BD0A000801
:1000300021020008000000004D040008D10B000858
:100040005F0100085F0100085F010008BD070008AC
:100050005F0100085F0100085F0100085F01000800
:100060005F0100085F0100085F0100085F010008F0
:100070005F0100085F0100085F0100085F010008E0
:100080005F0100085F0100085F0100085F010008D0
:100090005F0100085F0100085F0100085F010008C0
:1000A0005F0100085F0100085F0100085F010008B0
:1000B0005F0100085F0100085F0100085F010008A0
:1000C0005F0100085F0100085F0100085F01000890
:1000D0005F010008710C00085F0100085F01000863
:1000E0005F0100085F0100085F0100085F01000870
:1000F0005F0100085F0100085F0100085F01000860
:100100005F0100085F0100085F0100085F0100084F
:100110005F0100085F0100085F0100085F0100083F
:100120005F0100085F0100085F0100085F0100082F
:10013000DFF80CD000F03CF8004800471D12000822
:10014000780400200648804706480047FEE7FEE79F
:10015000FEE7FEE7FEE7FEE7FEE7FEE7FEE7FEE777
:10016000110C00083101000810B5002200E0521CFB
:10017000835C8C5CA34201D1002BF8D1D8B2E1B2F0
:10018000401A10BD30B50B46014600202022012444
:1001900009E021FA02F59D4205D303FA02F5491B55
:1001A00004FA02F52844151EA2F10102F1DC30BD6B
:1001B000064C074D06E0E06840F0010394E80700B4
:1001C00098471034AC42F6D3FFF7B6FFB0120008E0
:1001D000D012000810B5012000F05AF9002000F0FC
:1001E00057F910BD08B50146002000900348009063
:1001F0000098084400900098008808BD006C0040FA
:1002000008B500220092044A0092009A024400922B
:10021000009A116008BD0000006C004000BFFEE7BE
:1002200070472DE9F04102460025002600200023FA
:100230000024002791F803C00CF00F0591F803C0CB
:100240000CF0100CBCF1000F03D091F802C04CEA86
:10025000050591F800C0BCF1000F31D014680020F2
:100260002BE04FF0010C0CFA00F3B1F800C00CEADF
:1002700003069E4220D183004FF00F0C0CFA03F7C7
:10028000BC4305FA03FC4CEA040491F803C0BCF13A
:10029000280F06D14FF0010C0CFA00FCC2F814C074
:1002A0000AE091F803C0BCF1480F05D14FF0010CF2
:1002B0000CFA00FCC2F810C0401C0828D1D314600E
:1002C000B1F800C0BCF1FF0F34DD546800202EE00F
:1002D00000F1080C4FF0010808FA0CF3B1F800C067
:1002E0000CEA03069E4221D183004FF00F0C0CFA5A
:1002F00003F7BC4305FA03FC4CEA040491F803C07D
:10030000BCF1280F05D100F1080C08FA0CF8C2F86E
:10031000148091F803C0BCF1480F07D100F1080C1C
:100320004FF0010808FA0CF8C2F81080401C0828A9
:10033000CED35460BDE8F0810161704700BFFEE795
:100340000146CA1701EB92729210A1EB820292B998
:10035000642091FBF0F200FB121050B94FF4C8700A
:1003600091FBF0F200FB121008B901207047002049
:10037000FCE70120FAE70020F8E7000008B50121BA
:10038000102000F075F84FF40050ADF80000102078
:100390008DF8030003208DF8020069460448FFF73A
:1003A00040FF4FF400510248FFF7C6FF08BD0000B0
:1003B0000010014000BFFEE77047000070B500214B
:1003C00000230F22C47804B3154C246804F4E064BD
:1003D000C4F5E064210AC1F10403CA40447804FA78
:1003E00003F184781440214309010E4C0678A1558D
:1003F000047804F01F050124AC4005786D11AD00B0
:1004000005F1E025C5F8004109E0047804F01F0576
:100410000124AC40044D0678761145F8264070BDA5
:100420000CED00E000E400E080E100E0024901435F
:10043000024A1160704700000000FA050CED00E070
:10044000014908627047000000000E42704700003A
:1004500029B1064AD2690243044BDA6104E0034A37
:10046000D2698243014BDA617047000000100240FC
:1004700029B1064A92690243044B9A6104E0034A97
:1004800092698243014B9A6170470000001002405C
:1004900001490860704700004004424230B5002125
:1004A0000022002400232D4D6D6805F00C0121B1C0
:1004B000042905D0082923D105E0294D056022E053
:1004C000274D05601FE0254D6D6805F47012234D22
:1004D0006D6805F48034022505EB92421CB9214D6C
:1004E000554305600BE01D4D6D6805F400351DB1E9
:1004F0001C4D5543056002E0194D5543056002E06F
:10050000174D056000BF00BF144D6D6805F0F00188
:100510000909154D6B5C0568DD4045600F4D6D6840
:1005200005F4E061090A104D6B5C4568DD408560AB
:100530000A4D6D6805F46051C90A0B4D6B5C456846
:10054000DD40C560054D6D6805F44041890B074DE0
:100550006B5CC568B5FBF3F5056130BD001002406A
:1005600000127A0000093D00000000201000002069
:1005700010B501460022002300204A11012A02D1B1
:10058000094C236806E0022A02D1074C236A01E0E5
:10059000054C636A01F01F02012494401C400CB119
:1005A000012000E0002010BD001002400149086059
:1005B0007047000080044242014908607047000013
:1005C0003C0442420249096A0143014A11627047F0
:1005D00000100240024909888143014A1180704796
:1005E000042800400348008840F0100001490880BA
:1005F0007047000004280040034800884FF6EF7160
:1006000008400149088070470428004070B5002662
:100610000024002500F07AF806463848B6FBF0F4CE
:1006200037480088A0423CD035490C8040F2B27572
:1006300010E02846FFF784FE40B1B4F5B77F02D33F
:10064000A4F5B77404E0681C85B206E0A4F26D144A
:10065000681C85B2B4F5B67FEBD800BF2948858009
:10066000002516E027498888FFF76AFE30B1012D82
:1006700004D11D2C01D31D3C09E00CE02248405D53
:10068000A04203D82048405D241A00E003E0681C23
:1006900085B21C2CE6D200BF681C1A498871601C08
:1006A000C8711648B6FBF0F100FB11644FF46160AD
:1006B000B4FBF0F0134908704FF46160B4FBF0F143
:1006C00000FB11403C21B0FBF1F00E4948704FF4A3
:1006D0006160B4FBF0F100FB11403C21B0FBF1F292
:1006E00001FB1200074988700B46DA7999799888DE
:1006F00000F028F803490872002070BD8051010005
:10070000600000206C0000208C12000800210348CB
:100710000188001F008841EA004070471C28004003
:1007200001460020064A12880A40D0B2044A121F2D
:1007300012880A4012B108B1012000E00020704781
:1007400004280040F0B503460C461546642093FB90
:10075000F0F0C6B2642093FBF0F700FB1730C1B293
:10076000132E02DD01F16400C1B20846CF1701EB80
:10077000977701EBA707BAB2072092FBF0F700FBCF
:10078000172082B25719601EDFF82CC01CF8000039
:10079000384482B2CF1701EB9777BF10A1EB8707E0
:1007A0001FB9032C01DA501E82B2072092FBF0F72A
:1007B00000FB1720C0B2F0BD801200080EB501206A
:1007C000FFF7AEFF88B1FFF721FF17488078164981
:1007D0004978154A1278CDE9002102901248C37970
:1007E0008279818811A000F0A7FB0220FFF798FF13
:1007F000A0B10220FFF7EEFEFFF708FF0A4880785D
:1008000009494978084A1278CDE900210290064842
:10081000C379827981880DA000F08EFB0520FFF757
:10082000D9FE00F02FF90EBD6C0000205254432079
:1008300054696D653A25642D25642D256420256451
:100840003A25643A25640D0A00000000416C61728B
:100850006D2054696D653A25642D25642D2564202D
:1008600025643A25643A25640D0A000029B1064A38
:1008700012880243044B1A8004E0034A1288824320
:10088000014B1A8070470000002800407CB500240E
:1008900001214FF0C050FFF7DBFD0120FFF7D0FD35
:1008A0000120FFF783FE0420FFF79CFC45F2500176
:1008B000884244D0FFF78EFC04E0601CC4B20A20DA
:1008C00000F004FC6120FFF753FE08B9FA2CF4DBBA
:1008D000FA2C01DB01207CBD4FF40070FFF772FEA3
:1008E0000120FFF769FE00F0CDF800F0D5F80121F6
:1008F0000320FFF7BBFF00F0C5F8FFF773FE49F6D2
:10090000404000F0AFF800F0BDF800F017FC1348CD
:10091000807812494978114DCDE900102B78EA7999
:10092000A979AD8805F2CF75A8B200F029F8FFF7D4
:1009300063FE45F250010420FFF762FC07E000F07F
:10094000ABF801210320FFF791FF00F09BF800F0C6
:1009500007F8FFF75BFE0020BDE700006C000020F9
:1009600008B503208DF8000000208DF801008DF8F7
:10097000020001208DF803006846FFF71FFD08BD47
:100980002DE9F05F06460F4690469946DDE90AAB31
:10099000002440F2B270864203DB40F63300864208
:1009A00002DD0120BDE8F09F40F2B2750AE0284662
:1009B000FFF7C6FC10B12048044401E01F4804447E
:1009C000681C85B2B542F2DB781EC7B2002510E084
:1009D0001B48405D40F2A321484304EBC01430465D
:1009E000FFF7AEFC18B1012D01D116480444681C74
:1009F00085B2BD42ECDBA8F1010040F2A3214843DF
:100A000004EBC014C9EB4910C0EB092004EB00143F
:100A1000CAEB0A1004EB80045C4401214FF0C05083
:100A2000FFF716FD0120FFF70BFD204600F00CF844
:100A300000F028F80020B5E70085E2018033E101ED
:100A40008C1200088051010000B50246FFF7CAFD74
:100A5000100C03490880091D0A80FFF7CDFD00BD79
:100A60001828004000B50246FFF7BCFDC2F3034062
:100A700003490880091D0A80FFF7BEFD00BD000084
:100A80000828004000BF0348008800F0200000282C
:100A9000F9D0704704280040074800884FF6F771E6
:100AA00008400549088000BF0348008800F008009E
:100AB0000028F9D07047000004280040704710B5A6
:100AC00000F002F810BD00000CB50020019000906D
:100AD0003348006840F480303149086000BF304836
:100AE000006800F4003000900198401C01900098CC
:100AF00018B90198B0F5A06FF1D12948006800F449
:100B0000003010B10120009001E00020009000981A
:100B1000012843D12348006840F0100021490860B3
:100B20000846006820F0030008600846006840F0AE
:100B3000020008601A484068194948600846406841
:100B400048600846406840F4806048600846406855
:100B500020F47C1048600846406840F4E810486083
:100B60000846006840F08070086000BF0C480068CC
:100B700000F000700028F9D00948406820F0030018
:100B8000074948600846406840F00200486000BFDE
:100B90000348406800F00C000828F9D10CBD0000A3
:100BA0000010024000200240042808D14FF0E0214C
:100BB000096941F004014FF0E022116107E04FF0B4
:100BC000E021096921F004014FF0E0221161704732
:100BD0007047000010B504466FF00400FFF7E4FF13
:100BE000E11704EB5171C1F3C701074A11701046B8
:100BF000007800EB4001C1EBC0104FF6FF7101EA35
:100C0000C0000249088010BD62000020640000207E
:100C100010B51348006840F001001149086008460B
:100C20004068104908400E494860084600680E496F
:100C300008400B4908600846006820F480200860DE
:100C40000846406820F4FE0048604FF41F008860AA
:100C5000FFF735FF4FF000600449086010BD000049
:100C6000001002400000FFF8FFFFF6FE08ED00E074
:100C700010B540F225510C4800F096F870B10A48C2
:100C800000F04EF9C4B22146074800F04EF900BF0B
:100C90004021054800F07BF80128F9D140210248A5
:100CA00000F060F810BD00000038014010B586B0BB
:100CB000044601210420FFF7DBFB01218803FFF735
:100CC000D7FB01210846FFF7D3FB4FF40070ADF8C6
:100CD000140003208DF8160018208DF8170005A9C0
:100CE0001E48FFF79EFA4FF48060ADF81400042010
:100CF0008DF8170005A91948FFF793FA0194002011
:100D0000ADF80800ADF80A00ADF80C00ADF8100021
:100D10000C20ADF80E0001A9114800F095F8012152
:100D20000F4800F028F840210D4800F01BF8012280
:100D300040F225510A4800F061F825208DF80000A6
:100D400003208DF801008DF8020001208DF80300CA
:100D50006846FFF733FB06B010BD000000080140F5
:100D60000038014001F40072B2F5007F00D100BFED
:100D7000CA430280704721B1828942F400528281C5
:100D800004E082894DF6FF731A4082817047024663
:100D90000020B1F5007F00D100BF13880B400BB1DC
:100DA000012000E00020704770B5024600240023B7
:100DB0000025002040F66A16B14200D100BFC1F301
:100DC000421501F01F03012606FA03F3012D02D19B
:100DD0009689334006E0022D02D1168A334001E0A5
:100DE000968A33400C12012606FA04F41688344021
:100DF00013B10CB1012000E0002070BDF0B5034636
:100E0000002400260025002040F66A17B94200D1D0
:100E100000BF1846C1F3421401F01F06012707FA6C
:100E200006F5012C01D10C3004E0022C01D1103068
:100E300000E014301AB107682F43076002E007682A
:100E4000AF430760F0BD00002DE9F04786B00546CE
:100E50000E460024A24600BFA1460027B08900B17B
:100E600000BF2F462C8A4CF6FF700440F0880443E4
:100E70002C82AC894EF6F3100440B08831890843C7
:100E8000718908430443AC81AC8A4FF6FF400440AB
:100E9000B0890443AC8201A8FFF700FB1F488742DA
:100EA00002D1DDF810A001E0DDF80CA0A88900F463
:100EB000004040B10AEBCA0000EB0A10316849005B
:100EC000B0FBF1F807E00AEBCA0000EB0A1031684A
:100ED0008900B0FBF1F86420B8FBF0F004012009B0
:100EE000642101FB1089A88900F4004040B1322040
:100EF00000EBC900B0FBF1F000F00700044308E08C
:100F0000322000EB09106421B0FBF1F000F00F007B
:100F100004432C8106B0BDE8F08700000038014092
:100F200001468888C0F308007047C1F30802828038
:100F3000704700BFFEE700000FB4054B10B503A9D2
:100F4000044A029800F018F810BC5DF814FB000089
:100F5000191100086800002002E008C8121F08C12B
:100F6000002AFAD170477047002001E001C1121F2A
:100F7000002AFBD1704700002DE9FF4F89B09B4646
:100F80000446002506E025280BD05A460B999047C9
:100F9000641C6D1C20780028F5D10DB02846BDE8F2
:100FA000F08F0027B8460122474900E0074314F8B4
:100FB000013F203B02FA03F00842F7D120782E28A7
:100FC00019D114F8010F47F004072A280ED06FF04A
:100FD0002F022078A0F1300109290CD808EB8801F4
:100FE00002EB410100EB0108641CF2E70A98641C63
:100FF00050F8048B0A9020780028CED0642808D0BE
:10100000692806D075281ED05A460B9990476D1C4A
:1010100058E00A994FF00A0901C90A91002802DA3A
:1010200040422D2102E0390504D52B218DF82010F6
:10103000012103E0F90704D02021F7E78A4608AE32
:101040000DE00021FAE70A994FF00A0901C90A9157
:10105000F7E74946FFF796F8303106F8011D0028FA
:10106000F7D1ADEB060000F12009780701D44FF06D
:101070000108C84502DDA8EB090000E00020804619
:10108000002706E008A85A46C05D0B9990476D1CE2
:101090007F1C5745F6DB04E030205A460B999047F9
:1010A0006D1CB8F10001A8F10108F5DC05E016F8A7
:1010B000010B5A460B9990476D1CB9F10001A9F13B
:1010C0000109F4DC641C65E7092801000146114AA6
:1010D00012884A434FF0E0235A6100229A611A466F
:1010E000126942F001021A6100BF4FF0E02210695C
:1010F00000F001021AB100F48032002AF5D04FF05E
:10110000E022126922F001024FF0E0231A6100226E
:101110009A6170476400002070B504460D46E1B244
:101120000548FFF702FF00BF80210348FFF72FFEAD
:101130000028F9D0204670BD0038014010B5334872
:1011400000680079202806D130480068407930389E
:101150002F49C8710DE02D480068407930382B497F
:1011600009680979303901EB810100EB4100284918
:10117000C87126480068807A303824490968497A5D
:10118000303901EB810100EB4100214988800124C5
:101190000BE004EB84001F4A81181C480068FEF72E
:1011A000E3FF00B903E0601CC4B20C2CF1DD00BF0A
:1011B0001748847118480068407830381649096823
:1011C0000978303901EB810100EB410010490870CA
:1011D00011480068007930380F490968C9783039FA
:1011E00001EB810100EB4100094948700A480068A1
:1011F000C0793038084909688979303901EB8101B3
:1012000000EB41000249887010BD0000180000206A
:101210006C0000201C0000201400002000244FF46B
:10122000A060FFF703F94820FFF7D4FCFFF7A6F80A
:101230004FF41650FFF73AFDFFF728FB0BA0FFF71E
:101240007BFE12E0601CC4B2642094FBF0F100FB52
:10125000114038B90948006808B9012000E00020B1
:10126000064908600A20FFF731FFEBE7B3F5CABC77
:10127000BBAFCDEAB3C90D0A00000000B4012242A1
:101280000003030601040602050003051F1C1F1EC0
:101290001F1E1F1F1E1F1E1F4D6172203331203263
:1012A0003032320032333A35373A343500000000FC
:1012B000D0120008000000206C000000580F000849
:1012C0003C1300086C0000200C040000680F0008AC
:1012D00000000000010203040102030406070809DC
:1012E00002040608A4120008981200084E554C008B
:1012F000004A616E000046656200004D61720000A8
:1013000041707200004D617900004A756E00004A1C
:10131000756C0000417567000053657000004F63F5
:101320007400004E6F76000044656300000000000A
:0C133000000000000000000000000000B1
:0400000508000131BD
:00000001FF
